1015771001004ACTION, JOHN C.     BINDER, 3 RING 10030194026005752400000000019100
1015771001185DONNEGER, THOMAS N. FLIP FILES     10070650423009001900102000012700
1015771001730REEDE, OWEN W.      DEC RIBBON     10080903555011514400231000012900
1015771001960WINGLAND, KEITH E.  EXTERNAL CABLE 10020150005003502505100000017500
1015771003111CARTOLER, VIOLET B. FICHE FILES    12040280998007501600114000022320
1015771003304FROMM, STEVE V.     ROTARY STANDS  12050650005012000000182300028040
1015771003030ALLOREN, RUTH W.    FLEXIBLE DISK  15102132025005009002093300359380
1015771003181DELBERT, EDWARD D.  TRAVEL CASE    15091250659013055400000000021450
1015771003487KING, MILDRED J.    CONTROL BOARDS 15101853896018042900532201513473
1016771003027ALHOUER, ELAINE E.  INDEX TABS     12050112573002206600040000005280
1016771003171COSTA, NAN S.       ALBUMS         12100580356005609200090301120000
1016771005308GLEASON, JAMES E.   DISK HOLDER    10040145003003900000000000009700
1016771005568LYNNE, GERALD H.    MCA BINDERS    10070924487013331100142800018800
1016771005909UDSON, DORIS M.     MYLAR TAPE     10040154499003032500000000007500
1016771006292EVERLY, DONNA M.    FICHE MAILERS  05020332002017750000032200043700
1016771006409ICK, MICK W.        REFERENCE RACK 05070113122019508001450000013900
1016771006607ODELLE, NICHOLAS P. MCA PORTA DISK 05030582507018750700622000030700
1016771006825TILLMAN, DON M.     PAPER TAPE TRAY05051234444019950900466500019450
1016771008214EDMONSON, RICK T.   FICHE BINDERS  10030174067003305700000000010900
1016771008310GORMALLY, MARIE N.  MULTI-DISK RACK10060383022006405500086600010600
1016771008322HARLETON, JEAN H.   DATA BATCH BAGS15060784899012008900000000029550
1016771008505LAMBERT, JERRY D.   REPORT COVERS  15040154001004074500000000015150
1016771008921ULL, GEORGE         DEC CONNECTORS 15091802005027002501208000032550
1017771009105BOYLE, RALPH P.     FICHE PANELS   12060874044014305500778700028200
1017771009215EDSON, WILBUR S.    FICHE PAGES    12070604051008201500157500013920
1017771009574MELTZ, FRANK K.     CODING FORMS   12100754366005903000000001020272
1017771009820TELLER, STEPHEN U.  DISK FILTER    12101953044017701903222201127236
1017772002300FELDMAN, MIKE R.    MAG CARD PANELS10090250001003000000000000003300
1017772002325HATFIELD, MARK I.   CLAMP BINDERS  10070151122002053902122000002900
1017772002590NEIL, CLARENCE N.   PRINTOUT DESIGN12080750065009502300232400014040
1017772002801SCHEIBER, HARRY R.  CASSETTE STAND 12030195237003250800052000012960
1017772002956WANGLEY, THEO A.    INTERNAL CABLE 12070120005001500000027500002520
1017772004311GROLER, GRACE B.    CARD HOLDER    15102303643021542001836901348581
1017772004318HANEY, CAROL S.     PUNCH TAPE     15050975001014500000601900042600
1017772004834TRAWLEY, HARRIS T.  TAPE WINDER    15100572326005500000132901661000
1017772004317HANABEE, ALETA O.   PLASTIC FILES  12100385001003950000118001593086
1017772004721RASSMUSEN, JOHN J.  LINE CANISTERS 12080810001011000000234600014760
1018772004739RIDEL, ROBERT R.    SILK RIBBON    12070554504008257100722400014040
1018772004806STOCKTON, NORMAN Q. DISK CARTRIDGES12090672507007258801338000009600
1018772007122CENNA, DICK L.      DESK PADS      10080353777004420100000000005400
1018772007207EBERHARDT, RON G.   EASEL BINDERS  10060564007009409900098000012700
1018772007100BATES, TONY F.      RULER, FORMS   05040814066021764500517000025400
1018772007179DAMSON, ERIC C.     MINI BINDERS   05020352502018088800022300044550
1018772007332HELD, ANNA J.       FORMS CARRIERS 10090244005002950000092600003200
1018772007689OWNEY, REED M.      BOT MARKERS    10090434788005306600113200005800
1018772007802SHEA, MICHAEL H.    CASSETTE BOX   10080642033008208900468000010100
1018772010102BELLSLEY, ARTHUR A. TEMPLATE       15090883001009901500276200005450
1018772010282ESTABAN, JUAN L.    VINYL POCKETS  15101984055005000000505000397281
1018772010315HALE, ALAN A.       MAGNETIC SHIELD12081274105016800000382900024720
1018772010740RIDGEFIELD, SUZY S. HANGING FILES  12101804178019050600231001280543